{
  "_format": "hh-sol-artifact-1",
  "contractName": "SoulSplit",
  "sourceName": "contracts/SoulSplit.sol",
  "abi": [
    {
      "inputs": [],
      "stateMutability": "nonpayable",
      "type": "constructor"
    },
    {
      "anonymous": false,
      "inputs": [
        {
          "indexed": true,
          "internalType": "address",
          "name": "player",
          "type": "address"
        },
        {
          "indexed": false,
          "internalType": "uint256",
          "name": "level",
          "type": "uint256"
        },
        {
          "indexed": false,
          "internalType": "uint256",
          "name": "boxIndex",
          "type": "uint256"
        },
        {
          "indexed": false,
          "internalType": "bool",
          "name": "isWin",
          "type": "bool"
        },
        {
          "indexed": false,
          "internalType": "uint256",
          "name": "payout",
          "type": "uint256"
        }
      ],
      "name": "GameResult",
      "type": "event"
    },
    {
      "inputs": [],
      "name": "MAX_BET",
      "outputs": [
        {
          "internalType": "uint256",
          "name": "",
          "type": "uint256"
        }
      ],
      "stateMutability": "view",
      "type": "function"
    },
    {
      "inputs": [],
      "name": "MIN_BET",
      "outputs": [
        {
          "internalType": "uint256",
          "name": "",
          "type": "uint256"
        }
      ],
      "stateMutability": "view",
      "type": "function"
    },
    {
      "inputs": [],
      "name": "fundContract",
      "outputs": [],
      "stateMutability": "payable",
      "type": "function"
    },
    {
      "inputs": [
        {
          "internalType": "address",
          "name": "_player",
          "type": "address"
        }
      ],
      "name": "getCurrentLevel",
      "outputs": [
        {
          "internalType": "uint256",
          "name": "",
          "type": "uint256"
        }
      ],
      "stateMutability": "view",
      "type": "function"
    },
    {
      "inputs": [],
      "name": "getLeaderboard",
      "outputs": [
        {
          "internalType": "address[]",
          "name": "",
          "type": "address[]"
        },
        {
          "internalType": "uint256[]",
          "name": "",
          "type": "uint256[]"
        }
      ],
      "stateMutability": "view",
      "type": "function"
    },
    {
      "inputs": [],
      "name": "owner",
      "outputs": [
        {
          "internalType": "address",
          "name": "",
          "type": "address"
        }
      ],
      "stateMutability": "view",
      "type": "function"
    },
    {
      "inputs": [
        {
          "internalType": "uint256",
          "name": "_betAmount",
          "type": "uint256"
        },
        {
          "internalType": "uint256",
          "name": "_boxIndex",
          "type": "uint256"
        }
      ],
      "name": "play",
      "outputs": [],
      "stateMutability": "payable",
      "type": "function"
    },
    {
      "inputs": [
        {
          "internalType": "uint256",
          "name": "",
          "type": "uint256"
        }
      ],
      "name": "playerAddresses",
      "outputs": [
        {
          "internalType": "address",
          "name": "",
          "type": "address"
        }
      ],
      "stateMutability": "view",
      "type": "function"
    },
    {
      "inputs": [
        {
          "internalType": "address",
          "name": "",
          "type": "address"
        }
      ],
      "name": "players",
      "outputs": [
        {
          "internalType": "uint256",
          "name": "highestLevel",
          "type": "uint256"
        }
      ],
      "stateMutability": "view",
      "type": "function"
    },
    {
      "stateMutability": "payable",
      "type": "receive"
    }
  ],
  "bytecode": "0x608060405234801561001057600080fd5b50336000806101000a81548173ffffffffffffffffffffffffffffffffffffffff021916908373ffffffffffffffffffffffffffffffffffffffff16021790555060014361005e91906100a6565b4060001c6001819055506100da565b6000819050919050565b7f4e487b7100000000000000000000000000000000000000000000000000000000600052601160045260246000fd5b60006100b18261006d565b91506100bc8361006d565b92508282039050818111156100d4576100d3610077565b5b92915050565b61155280620000ea6000396000f3fe60806040526004361061008a5760003560e01c80637e95b523116100595780637e95b523146101465780638da5cb5b14610171578063bd097e211461019c578063d9087025146101a6578063e2eb41ff146101e357610091565b806315c6aee2146100965780636540742f146100d35780636d763a6e146100fe5780637bc49a951461012a57610091565b3661009157005b600080fd5b3480156100a257600080fd5b506100bd60048036038101906100b89190610c96565b610220565b6040516100ca9190610d04565b60405180910390f35b3480156100df57600080fd5b506100e861025f565b6040516100f59190610d2e565b60405180910390f35b34801561010a57600080fd5b5061011361026a565b604051610121929190610ec5565b60405180910390f35b610144600480360381019061013f9190610efc565b61060e565b005b34801561015257600080fd5b5061015b610a5a565b6040516101689190610d2e565b60405180910390f35b34801561017d57600080fd5b50610186610a66565b6040516101939190610d04565b60405180910390f35b6101a4610a8a565b005b3480156101b257600080fd5b506101cd60048036038101906101c89190610f68565b610b1a565b6040516101da9190610d2e565b60405180910390f35b3480156101ef57600080fd5b5061020a60048036038101906102059190610f68565b610b72565b6040516102179190610d2e565b60405180910390f35b6003818154811061023057600080fd5b906000526020600020016000915054906101000a900473ffffffffffffffffffffffffffffffffffffffff1681565b660e35fa931a000081565b60608060006005600380549050116102875760038054905061028a565b60055b905060008167ffffffffffffffff8111156102a8576102a7610f95565b5b6040519080825280602002602001820160405280156102d65781602001602082028036833780820191505090505b50905060008267ffffffffffffffff8111156102f5576102f4610f95565b5b6040519080825280602002602001820160405280156103235781602001602082028036833780820191505090505b50905060005b838110156103b457600083828151811061034657610345610fc4565b5b602002602001019073ffffffffffffffffffffffffffffffffffffffff16908173ffffffffffffffffffffffffffffffffffffffff1681525050600082828151811061039557610394610fc4565b5b60200260200101818152505080806103ac90611022565b915050610329565b5060005b600380549050811015610600576000600382815481106103db576103da610fc4565b5b9060005260206000200160009054906101000a900473ffffffffffffffffffffffffffffffffffffffff1690506000600260008373ffffffffffffffffffffffffffffffffffffffff1673ffffffffffffffffffffffffffffffffffffffff16815260200190815260200160002060000154905060005b868110156105ea5784818151811061046d5761046c610fc4565b5b60200260200101518211156105d757600060018861048b919061106a565b90505b8181111561056357866001826104a4919061106a565b815181106104b5576104b4610fc4565b5b60200260200101518782815181106104d0576104cf610fc4565b5b602002602001019073ffffffffffffffffffffffffffffffffffffffff16908173ffffffffffffffffffffffffffffffffffffffff168152505085600182610518919061106a565b8151811061052957610528610fc4565b5b602002602001015186828151811061054457610543610fc4565b5b602002602001018181525050808061055b9061109e565b91505061048e565b508286828151811061057857610577610fc4565b5b602002602001019073ffffffffffffffffffffffffffffffffffffffff16908173ffffffffffffffffffffffffffffffffffffffff1681525050818582815181106105c6576105c5610fc4565b5b6020026020010181815250506105ea565b80806105e290611022565b915050610452565b50505080806105f890611022565b9150506103b8565b508181945094505050509091565b813414610650576040517f08c379a000000000000000000000000000000000000000000000000000000000815260040161064790611124565b60405180910390fd5b660e35fa931a0000821015801561066f5750670de0b6b3a76400008211155b6106ae576040517f08c379a00000000000000000000000000000000000000000000000000000000081526004016106a590611190565b60405180910390fd5b600581106106f1576040517f08c379a00000000000000000000000000000000000000000000000000000000081526004016106e8906111fc565b60405180910390fd5b600154423360405160200161070893929190611285565b6040516020818303038152906040528051906020012060001c6001819055506000600560015461073891906112f1565b905060015460405160200161074d9190611322565b6040516020818303038152906040528051906020012060001c6001819055506000600560015461077d91906112f1565b90505b8181036107cf5760015460405160200161079a9190611322565b6040516020818303038152906040528051906020012060001c60018190555060056001546107c891906112f1565b9050610780565b60008284141580156107e15750818414155b9050600081156108a65760006107fe6107f933610b1a565b610b90565b9050600a818861080e919061133d565b610818919061137f565b91508147101561085d576040517f08c379a0000000000000000000000000000000000000000000000000000000008152600401610854906113fc565b60405180910390fd5b3373ffffffffffffffffffffffffffffffffffffffff166108fc839081150290604051600060405180830381858888f193505050501580156108a3573d6000803e3d6000fd5b50505b6000600260003373ffffffffffffffffffffffffffffffffffffffff1673ffffffffffffffffffffffffffffffffffffffff1681526020019081526020016000206000015403610954576003339080600181540180825580915050600190039060005260206000200160009091909190916101000a81548173ffffffffffffffffffffffffffffffffffffffff021916908373ffffffffffffffffffffffffffffffffffffffff1602179055505b600260003373ffffffffffffffffffffffffffffffffffffffff1673ffffffffffffffffffffffffffffffffffffffff168152602001908152602001600020600001546109a033610b1a565b11156109f6576109af33610b1a565b600260003373ffffffffffffffffffffffffffffffffffffffff1673ffffffffffffffffffffffffffffffffffffffff168152602001908152602001600020600001819055505b3373ffffffffffffffffffffffffffffffffffffffff167f7348729c11254d613077411356e15571f9093497ddbf5a97d9cae3375a444e62610a3733610b1a565b878585604051610a4a9493929190611437565b60405180910390a2505050505050565b670de0b6b3a764000081565b60008054906101000a900473ffffffffffffffffffffffffffffffffffffffff1681565b60008054906101000a900473ffffffffffffffffffffffffffffffffffffffff1673ffffffffffffffffffffffffffffffffffffffff163373ffffffffffffffffffffffffffffffffffffffff1614610b18576040517f08c379a0000000000000000000000000000000000000000000000000000000008152600401610b0f906114c8565b60405180910390fd5b565b60006001600260008473ffffffffffffffffffffffffffffffffffffffff1673ffffffffffffffffffffffffffffffffffffffff16815260200190815260200160002060000154610b6b91906114e8565b9050919050565b60026020528060005260406000206000915090508060000154905081565b600080604051806102800160405280600181526020016003815260200160068152602001600a8152602001600f815260200160168152602001601f8152602001602a8152602001603781526020016046815260200160588152602001606d815260200160848152602001609e815260200160bb815260200160dc8152602001610104815260200161012c815260200161015e8152602001610190815250905080600184610c3d919061106a565b60148110610c4e57610c4d610fc4565b5b6020020151915050919050565b600080fd5b6000819050919050565b610c7381610c60565b8114610c7e57600080fd5b50565b600081359050610c9081610c6a565b92915050565b600060208284031215610cac57610cab610c5b565b5b6000610cba84828501610c81565b91505092915050565b600073ffffffffffffffffffffffffffffffffffffffff82169050919050565b6000610cee82610cc3565b9050919050565b610cfe81610ce3565b82525050565b6000602082019050610d196000830184610cf5565b92915050565b610d2881610c60565b82525050565b6000602082019050610d436000830184610d1f565b92915050565b600081519050919050565b600082825260208201905092915050565b6000819050602082019050919050565b610d7e81610ce3565b82525050565b6000610d908383610d75565b60208301905092915050565b6000602082019050919050565b6000610db482610d49565b610dbe8185610d54565b9350610dc983610d65565b8060005b83811015610dfa578151610de18882610d84565b9750610dec83610d9c565b925050600181019050610dcd565b5085935050505092915050565b600081519050919050565b600082825260208201905092915050565b6000819050602082019050919050565b610e3c81610c60565b82525050565b6000610e4e8383610e33565b60208301905092915050565b6000602082019050919050565b6000610e7282610e07565b610e7c8185610e12565b9350610e8783610e23565b8060005b83811015610eb8578151610e9f8882610e42565b9750610eaa83610e5a565b925050600181019050610e8b565b5085935050505092915050565b60006040820190508181036000830152610edf8185610da9565b90508181036020830152610ef38184610e67565b90509392505050565b60008060408385031215610f1357610f12610c5b565b5b6000610f2185828601610c81565b9250506020610f3285828601610c81565b9150509250929050565b610f4581610ce3565b8114610f5057600080fd5b50565b600081359050610f6281610f3c565b92915050565b600060208284031215610f7e57610f7d610c5b565b5b6000610f8c84828501610f53565b91505092915050565b7f4e487b7100000000000000000000000000000000000000000000000000000000600052604160045260246000fd5b7f4e487b7100000000000000000000000000000000000000000000000000000000600052603260045260246000fd5b7f4e487b7100000000000000000000000000000000000000000000000000000000600052601160045260246000fd5b600061102d82610c60565b91507fffffffffffffffffffffffffffffffffffffffffffffffffffffffffffffffff820361105f5761105e610ff3565b5b600182019050919050565b600061107582610c60565b915061108083610c60565b925082820390508181111561109857611097610ff3565b5b92915050565b60006110a982610c60565b9150600082036110bc576110bb610ff3565b5b600182039050919050565b600082825260208201905092915050565b7f53656e742076616c7565206d75737420657175616c2062657420616d6f756e74600082015250565b600061110e6020836110c7565b9150611119826110d8565b602082019050919050565b6000602082019050818103600083015261113d81611101565b9050919050565b7f42657420616d6f756e74206f7574206f662072616e6765000000000000000000600082015250565b600061117a6017836110c7565b915061118582611144565b602082019050919050565b600060208201905081810360008301526111a98161116d565b9050919050565b7f496e76616c696420626f7820696e646578000000000000000000000000000000600082015250565b60006111e66011836110c7565b91506111f1826111b0565b602082019050919050565b60006020820190508181036000830152611215816111d9565b9050919050565b6000819050919050565b61123761123282610c60565b61121c565b82525050565b60008160601b9050919050565b60006112558261123d565b9050919050565b60006112678261124a565b9050919050565b61127f61127a82610ce3565b61125c565b82525050565b60006112918286611226565b6020820191506112a18285611226565b6020820191506112b1828461126e565b601482019150819050949350505050565b7f4e487b7100000000000000000000000000000000000000000000000000000000600052601260045260246000fd5b60006112fc82610c60565b915061130783610c60565b925082611317576113166112c2565b5b828206905092915050565b600061132e8284611226565b60208201915081905092915050565b600061134882610c60565b915061135383610c60565b925082820261136181610c60565b9150828204841483151761137857611377610ff3565b5b5092915050565b600061138a82610c60565b915061139583610c60565b9250826113a5576113a46112c2565b5b828204905092915050565b7f496e73756666696369656e7420636f6e74726163742062616c616e6365000000600082015250565b60006113e6601d836110c7565b91506113f1826113b0565b602082019050919050565b60006020820190508181036000830152611415816113d9565b9050919050565b60008115159050919050565b6114318161141c565b82525050565b600060808201905061144c6000830187610d1f565b6114596020830186610d1f565b6114666040830185611428565b6114736060830184610d1f565b95945050505050565b7f4f6e6c79206f776e65722063616e2066756e6400000000000000000000000000600082015250565b60006114b26013836110c7565b91506114bd8261147c565b602082019050919050565b600060208201905081810360008301526114e1816114a5565b9050919050565b60006114f382610c60565b91506114fe83610c60565b925082820190508082111561151657611515610ff3565b5b9291505056fea26469706673582212209444e684faf9deea0f28240f5dbcdcdeb0002614c409aafd459d2ff90abca07264736f6c63430008140033",
  "linkReferences": {},
  "deployedLinkReferences": {}
}